:1000000019C028C027C026C025C024C023C022C0D4
:1000100021C020C01FC01EC01DC01CC08AC01AC085
:1000200019C018C017C016C015C014C013C012C024
:1000300011C010C011241FBECFEFCDBFDFE3DEBF64
:100040002FE3A0E0BFE301C01D92AA30B207E1F7A1
:10005000C6D05DC1D5CF9FB7F89488E08093840A5D
:1000600080918E0A81FFFCCF80918D0AE091A20AD7
:10007000F091A30A2091063F3091073F4091083F3D
:100080005091093F9FBF80FF07C0E730F10520F482
:100090002F5F3F4F4F4F5F4FBF0176956795CF0161
:1000A000860F911DE62FE695E695762F72957F7067
:1000B000E71BFF0B67FD3196E80FF91FA0E3B3E0E4
:1000C00010D16E0F7F1F811D911D08958F929F92F9
:1000D000AF92BF92CF92DF92EF92FF92BCDF4B01C3
:1000E0005C0184E6C82ED12CE12CF12CB4DF681918
:1000F00079098A099B09683E734081059105B0F32F
:1001000021E0C21AD108E108F10888EE880E83E0E8
:10011000981EA11CB11CC114D104E104F10431F7F3
:10012000FF90EF90DF90CF90BF90AF909F908F9017
:1001300008951F920F920FB60F9211242F933F93A1
:100140004F935F936F938F939F93AF93BF938091E0
:10015000023F9091033FA091043FB091053F409131
:10016000003F5091013F9A01205D3C4F283E63E0E3
:10017000360728F0285E33400196A11DB11D20935B
:10018000003F3093013F8093023F9093033FA09341
:10019000043FB093053F8091063F9091073FA091A7
:1001A000083FB091093F0196A11DB11D8093063F04
:1001B0009093073FA093083FB093093F81E080935D
:1001C0008D0ABF91AF919F918F916F915F914F91E8
:1001D0003F912F910F900FBE0F901F90189588EDB3
:1001E00090E084BF9093610083E58093020680E1F4
:1001F0008093050680E2809303068091000681606B
:100200008093000681E08093030A9EEF9093260A74
:100210009093270A9BE09093000A809302022DEFAF
:1002200031E02093AE0A3093AF0A80938C0A10928B
:10023000810A80E88093820A81E18093800A789421
:100240001092000A1092010A1092020A1092030AF8
:100250008091000A8A608093000A8AE698E1809380
:10026000260A9093270A81E792E080932A0A9093C6
:100270002B0A8091010A80628093010A8091010A11
:1002800083608093010A8091000A81608093000A54
:1002900084E08093010482E08093010488E08093ED
:1002A000020480911304886080931304C4E081E702
:1002B000E82E82E0F82E06E412E08091080483FF25
:1002C00003C0C0930604F9CFC0930504E0922A0A44
:1002D000F0922B0AFBDE00932A0A10932B0AF6DE1B
:1002E000ECCF09D0A59F900DB49F900DA49F800DD9
:1002F000911D11240895A29FB001B39FC001A39F37
:1003000001D0B29F700D811D1124911D0895F894A4
:02031000FFCF1D
:00000001FF
